:0400000002001132B7
:03000B000200B040
:10006A00E4F508F509F50A750B04750C11F50D028E
:02007A00000E76
:03000E0002007C71
:10007C00D2AFD2A97582011201CDC3E50894E8E58F
:10008C000994034007050AE4F508F50974C4250A28
:10009C005005050B750A0074C4250B50DD050C7555
:1000AC000B0080D6C020C0E0C0F0C082C083C00767
:1000BC00C006C005C004C003C002C001C000C0D04F
:1000CC0075D000758CFC758A670508E4B5080205C7
:1000DC0009E50D24FA50030201B0E50D75F003A4F7
:1000EC009000F07302012002010202015A02013D4C
:1000FC00020195020177850D821201D9AE0A7F00AB
:10010C00750E0A8F0F8E828F831202F012023A053F
:10011C000D0201B0850D821201D9AE0A7F00750E59
:10012C000A8F0F8E828F831202BA12023A050D804B
:10013C0073850D821201D9AE0B7F00750E0A8F0FDD
:10014C008E828F831202F012023A050D8056850DB5
:10015C00821201D9AE0B7F00750E0A8F0F8E828F23
:10016C00831202BA12023A050D8039850D821201F2
:10017C00D9AE0C7F00750E0A8F0F8E828F83120200
:10018C00F012023A750D00801B850D821201D9AE5A
:10019C000C7F00750E0A8F0F8E828F831202BA129B
:1001AC00023A050DD0D0D000D001D002D003D0043B
:1001BC00D005D006D007D083D082D0F0D0E0D020AC
:0101CC003200
:08032C00FFFFFFFFFFFFFFFFD1
:1001CD00758901758CFC758A67D28C22AF8275801A
:1001DD0000EF24F8500122EF240A83F582EF240C5E
:1001ED0083F583E473020910171E252C33020202D6
:1001FD000202020202C2A2C2A3C2A422D2A2C2A3BE
:10020D00C2A422C2A2D2A3C2A422D2A2D2A3C2A4A9
:10021D0022C2A2C2A3D2A422D2A2C2A3D2A422C21B
:10022D00A2D2A3D2A422D2A2D2A3D2A422E582909A
:07023D00033493F4F5802265
:0A033400C0F9A4B0999282F88090FD
:06004000E478FFF6D8FD94
:10001E007900E94400601B7A0090033E780175A0D8
:10002E0000E493F2A308B8000205A0D9F4DAF27541
:02003E00A0FF21
:10024400E50E450F60467A01E50E25E0F50EE50F53
:10025400334012F50FE582950EE583950F40030AAE
:1002640080E6C3E50F13F50FE50E13F50EC3E58223
:10027400950EF5F0E583950F4005F58385F082C36F
:0D028400E50F13F50FE50E13F50EDAE1227C
:100046007800E84400600A790175A000E4F309D855
:10005600FC7800E84400600C7900900001E4F0A30D
:04006600D8FCD9FAEF
:100291007A10E4FBFCE58225E0F582E58333F58302
:1002A100EB33FBEC33FCEB950EF5F0EC950F4006D0
:0902B100FCABF0438201DADD220E
:0D001100758120120328E582600302000EB5
:1002BA00C2D5E58330E70DD2D5E4C39582F582E451
:1002CA009583F583E50F30E70BE4C3950EF50EE44D
:1002DA00950FF50F12024430D50BE4C39582F582CF
:1002EA00E49583F58322C2D5E58330E70DD2D5E4C0
:1002FA00C39582F582E49583F583E50F30E70DB265
:10030A00D5E4C3950EF50EE4950FF50F1202913060
:10031A00D50BE4C39582F582E49583F58322758231
:02032A000022AF
:00000001FF
